{
  "contractName": "SuperloudCatalog",
  "abi": [
    {
      "inputs": [],
      "stateMutability": "nonpayable",
      "type": "constructor"
    },
    {
      "anonymous": false,
      "inputs": [
        {
          "indexed": false,
          "internalType": "bytes32",
          "name": "id_karaoke_version",
          "type": "bytes32"
        },
        {
          "indexed": false,
          "internalType": "uint256",
          "name": "created_at",
          "type": "uint256"
        },
        {
          "indexed": false,
          "internalType": "address",
          "name": "curator_address",
          "type": "address"
        },
        {
          "indexed": false,
          "internalType": "string",
          "name": "id_original_version",
          "type": "string"
        },
        {
          "indexed": false,
          "internalType": "string",
          "name": "uri_metadata",
          "type": "string"
        },
        {
          "indexed": false,
          "internalType": "bool",
          "name": "is_indexed",
          "type": "bool"
        }
      ],
      "name": "ListNewKaraokeVersion",
      "type": "event"
    },
    {
      "anonymous": false,
      "inputs": [
        {
          "indexed": false,
          "internalType": "bytes32",
          "name": "id_karaoke_version",
          "type": "bytes32"
        },
        {
          "indexed": false,
          "internalType": "string",
          "name": "uri_metadata",
          "type": "string"
        },
        {
          "indexed": false,
          "internalType": "bool",
          "name": "is_indexed",
          "type": "bool"
        }
      ],
      "name": "UpdateListedKaraokeVersion",
      "type": "event"
    },
    {
      "inputs": [
        {
          "internalType": "address",
          "name": "",
          "type": "address"
        },
        {
          "internalType": "uint256",
          "name": "",
          "type": "uint256"
        }
      ],
      "name": "curator_address_to_songs",
      "outputs": [
        {
          "internalType": "bytes32",
          "name": "",
          "type": "bytes32"
        }
      ],
      "stateMutability": "view",
      "type": "function",
      "constant": true
    },
    {
      "inputs": [
        {
          "internalType": "bytes32",
          "name": "",
          "type": "bytes32"
        }
      ],
      "name": "id_karaoke_version_to_listed_song",
      "outputs": [
        {
          "internalType": "bytes32",
          "name": "id_karaoke_version",
          "type": "bytes32"
        },
        {
          "internalType": "uint256",
          "name": "created_at",
          "type": "uint256"
        },
        {
          "internalType": "address",
          "name": "curator",
          "type": "address"
        },
        {
          "internalType": "string",
          "name": "id_original_version",
          "type": "string"
        },
        {
          "internalType": "string",
          "name": "uri_metadata",
          "type": "string"
        },
        {
          "internalType": "bool",
          "name": "is_indexed",
          "type": "bool"
        },
        {
          "internalType": "bool",
          "name": "exists",
          "type": "bool"
        }
      ],
      "stateMutability": "view",
      "type": "function",
      "constant": true
    },
    {
      "inputs": [
        {
          "internalType": "string",
          "name": "",
          "type": "string"
        },
        {
          "internalType": "uint256",
          "name": "",
          "type": "uint256"
        }
      ],
      "name": "id_original_version_to_karaoke_versions",
      "outputs": [
        {
          "internalType": "bytes32",
          "name": "",
          "type": "bytes32"
        }
      ],
      "stateMutability": "view",
      "type": "function",
      "constant": true
    },
    {
      "inputs": [],
      "name": "owner",
      "outputs": [
        {
          "internalType": "address",
          "name": "",
          "type": "address"
        }
      ],
      "stateMutability": "view",
      "type": "function",
      "constant": true
    },
    {
      "inputs": [
        {
          "internalType": "string",
          "name": "id_original_version",
          "type": "string"
        },
        {
          "internalType": "string",
          "name": "uri_metadata",
          "type": "string"
        },
        {
          "internalType": "uint256",
          "name": "created_at",
          "type": "uint256"
        }
      ],
      "name": "listNewKaraokeVersion",
      "outputs": [],
      "stateMutability": "nonpayable",
      "type": "function"
    },
    {
      "inputs": [
        {
          "internalType": "bytes32",
          "name": "id_karaoke_version",
          "type": "bytes32"
        },
        {
          "internalType": "bool",
          "name": "is_indexed",
          "type": "bool"
        },
        {
          "internalType": "string",
          "name": "uri_metadata_updated",
          "type": "string"
        }
      ],
      "name": "updateKaraokeVersion",
      "outputs": [],
      "stateMutability": "nonpayable",
      "type": "function"
    },
    {
      "inputs": [],
      "name": "getAllKaraokeVersions",
      "outputs": [
        {
          "components": [
            {
              "internalType": "bytes32",
              "name": "id_karaoke_version",
              "type": "bytes32"
            },
            {
              "internalType": "uint256",
              "name": "created_at",
              "type": "uint256"
            },
            {
              "internalType": "address",
              "name": "curator",
              "type": "address"
            },
            {
              "internalType": "string",
              "name": "id_original_version",
              "type": "string"
            },
            {
              "internalType": "string",
              "name": "uri_metadata",
              "type": "string"
            },
            {
              "internalType": "bool",
              "name": "is_indexed",
              "type": "bool"
            },
            {
              "internalType": "bool",
              "name": "exists",
              "type": "bool"
            }
          ],
          "internalType": "struct SuperloudCatalog.KaraokeVersion[]",
          "name": "",
          "type": "tuple[]"
        }
      ],
      "stateMutability": "view",
      "type": "function",
      "constant": true
    },
    {
      "inputs": [],
      "name": "getIndexedKaraokeVersions",
      "outputs": [
        {
          "components": [
            {
              "internalType": "bytes32",
              "name": "id_karaoke_version",
              "type": "bytes32"
            },
            {
              "internalType": "uint256",
              "name": "created_at",
              "type": "uint256"
            },
            {
              "internalType": "address",
              "name": "curator",
              "type": "address"
            },
            {
              "internalType": "string",
              "name": "id_original_version",
              "type": "string"
            },
            {
              "internalType": "string",
              "name": "uri_metadata",
              "type": "string"
            },
            {
              "internalType": "bool",
              "name": "is_indexed",
              "type": "bool"
            },
            {
              "internalType": "bool",
              "name": "exists",
              "type": "bool"
            }
          ],
          "internalType": "struct SuperloudCatalog.KaraokeVersion[]",
          "name": "",
          "type": "tuple[]"
        }
      ],
      "stateMutability": "view",
      "type": "function",
      "constant": true
    },
    {
      "inputs": [
        {
          "internalType": "address",
          "name": "curator",
          "type": "address"
        }
      ],
      "name": "getKaraokeVersionsByCurator",
      "outputs": [
        {
          "components": [
            {
              "internalType": "bytes32",
              "name": "id_karaoke_version",
              "type": "bytes32"
            },
            {
              "internalType": "uint256",
              "name": "created_at",
              "type": "uint256"
            },
            {
              "internalType": "address",
              "name": "curator",
              "type": "address"
            },
            {
              "internalType": "string",
              "name": "id_original_version",
              "type": "string"
            },
            {
              "internalType": "string",
              "name": "uri_metadata",
              "type": "string"
            },
            {
              "internalType": "bool",
              "name": "is_indexed",
              "type": "bool"
            },
            {
              "internalType": "bool",
              "name": "exists",
              "type": "bool"
            }
          ],
          "internalType": "struct SuperloudCatalog.KaraokeVersion[]",
          "name": "songs",
          "type": "tuple[]"
        }
      ],
      "stateMutability": "view",
      "type": "function",
      "constant": true
    },
    {
      "inputs": [
        {
          "internalType": "string",
          "name": "id_original_version",
          "type": "string"
        }
      ],
      "name": "getKaraokeVersionsForOriginalVersion",
      "outputs": [
        {
          "components": [
            {
              "internalType": "bytes32",
              "name": "id_karaoke_version",
              "type": "bytes32"
            },
            {
              "internalType": "uint256",
              "name": "created_at",
              "type": "uint256"
            },
            {
              "internalType": "address",
              "name": "curator",
              "type": "address"
            },
            {
              "internalType": "string",
              "name": "id_original_version",
              "type": "string"
            },
            {
              "internalType": "string",
              "name": "uri_metadata",
              "type": "string"
            },
            {
              "internalType": "bool",
              "name": "is_indexed",
              "type": "bool"
            },
            {
              "internalType": "bool",
              "name": "exists",
              "type": "bool"
            }
          ],
          "internalType": "struct SuperloudCatalog.KaraokeVersion[]",
          "name": "indexed_karaoke_versions",
          "type": "tuple[]"
        }
      ],
      "stateMutability": "view",
      "type": "function",
      "constant": true
    },
    {
      "inputs": [
        {
          "internalType": "bytes32",
          "name": "id",
          "type": "bytes32"
        }
      ],
      "name": "getKaraokeVersionById",
      "outputs": [
        {
          "internalType": "bytes32",
          "name": "id_karaoke_version",
          "type": "bytes32"
        },
        {
          "internalType": "uint256",
          "name": "created_at",
          "type": "uint256"
        },
        {
          "internalType": "address",
          "name": "curator",
          "type": "address"
        },
        {
          "internalType": "string",
          "name": "uri_metadata",
          "type": "string"
        },
        {
          "internalType": "bool",
          "name": "is_indexed",
          "type": "bool"
        }
      ],
      "stateMutability": "view",
      "type": "function",
      "constant": true
    }
  ],
  "bytecode": "0x608060405234801561001057600080fd5b50336000806101000a81548173ffffffffffffffffffffffffffffffffffffffff021916908373ffffffffffffffffffffffffffffffffffffffff160217905550612fdb806100606000396000f3fe608060405234801561001057600080fd5b50600436106100a95760003560e01c80638da5cb5b116100715780638da5cb5b1461017c57806393f74ecd1461019a578063be28ec81146101b6578063dfa085e0146101e6578063f126b42c1461021c578063fbf517b81461024c576100a9565b806340914810146100ae57806347352618146100de5780636a1d1b34146100fa57806371bd3f2b1461012a5780637a6a6c481461015e575b600080fd5b6100c860048036038101906100c39190611f42565b61026a565b6040516100d59190611f9b565b60405180910390f35b6100f860048036038101906100f39190612160565b61029b565b005b610114600480360381019061010f91906121cf565b610585565b6040516101219190611f9b565b60405180910390f35b610144600480360381019061013f919061222b565b6105cc565b604051610155959493929190612304565b60405180910390f35b6101666107e3565b6040516101739190612549565b60405180910390f35b610184610b00565b604051610191919061256b565b60405180910390f35b6101b460048036038101906101af9190612586565b610b29565b005b6101d060048036038101906101cb9190612611565b610e37565b6040516101dd9190612549565b60405180910390f35b61020060048036038101906101fb919061222b565b6115ef565b604051610213979695949392919061263e565b60405180910390f35b610236600480360381019061023191906126bb565b61177b565b6040516102439190612549565b60405180910390f35b610254611b3c565b6040516102619190612549565b60405180910390f35b6003602052816000526040600020818154811061028657600080fd5b90600052602060002001600091509150505481565b6102a3610b00565b73ffffffffffffffffffffffffffffffffffffffff163373ffffffffffffffffffffffffffffffffffffffff16148061033d57506001600084815260200190815260200160002060020160009054906101000a900473ffffffffffffffffffffffffffffffffffffffff1673ffffffffffffffffffffffffffffffffffffffff163373ffffffffffffffffffffffffffffffffffffffff16145b61037c576040517f08c379a00000000000000000000000000000000000000000000000000000000081526004016103739061279c565b60405180910390fd5b60006001600085815260200190815260200160002090508215158160050160009054906101000a900460ff1615151461049d57826001600086815260200190815260200160002060050160006101000a81548160ff021916908315150217905550600115158315150361041757600584908060018154018082558091505060019003906000526020600020016000909190919091505561049c565b6005600160058054905061042b91906127eb565b8154811061043c5761043b61281f565b5b90600052602060002001546005610454866005611de4565b815481106104655761046461281f565b5b906000526020600020018190555060058054806104855761048461284e565b5b600190038181906000526020600020016000905590555b5b816040516020016104ae91906128b9565b60405160208183030381529060405280519060200120816004016040516020016104d891906129c8565b604051602081830303815290604052805190602001201461051857816001600086815260200190815260200160002060040190816105169190612b76565b505b60006001600086815260200190815260200160002090507ff39556f77a8379fec9e5d3096016a5b01901e35ef13349ff57bf6592b9f12df685826004018360050160009054906101000a900460ff1660405161057693929190612ccc565b60405180910390a15050505050565b60028280516020810182018051848252602083016020850120818352809550505050505081815481106105b757600080fd5b90600052602060002001600091509150505481565b60008060006060600080600160008881526020019081526020016000206040518060e001604052908160008201548152602001600182015481526020016002820160009054906101000a900473ffffffffffffffffffffffffffffffffffffffff1673ffffffffffffffffffffffffffffffffffffffff1673ffffffffffffffffffffffffffffffffffffffff16815260200160038201805461066e906128ff565b80601f016020809104026020016040519081016040528092919081815260200182805461069a906128ff565b80156106e75780601f106106bc576101008083540402835291602001916106e7565b820191906000526020600020905b8154815290600101906020018083116106ca57829003601f168201915b50505050508152602001600482018054610700906128ff565b80601f016020809104026020016040519081016040528092919081815260200182805461072c906128ff565b80156107795780601f1061074e57610100808354040283529160200191610779565b820191906000526020600020905b81548152906001019060200180831161075c57829003601f168201915b505050505081526020016005820160009054906101000a900460ff161515151581526020016005820160019054906101000a900460ff1615151515815250509050868160200151826040015183608001518460a00151955095509550955095505091939590929450565b60603373ffffffffffffffffffffffffffffffffffffffff16610804610b00565b73ffffffffffffffffffffffffffffffffffffffff161461085a576040517f08c379a000000000000000000000000000000000000000000000000000000000815260040161085190612d7c565b60405180910390fd5b600060048054905067ffffffffffffffff81111561087b5761087a612035565b5b6040519080825280602002602001820160405280156108b457816020015b6108a1611e40565b8152602001906001900390816108995790505b50905060005b806004805490501115610af85760016000600483815481106108df576108de61281f565b5b906000526020600020015481526020019081526020016000206040518060e001604052908160008201548152602001600182015481526020016002820160009054906101000a900473ffffffffffffffffffffffffffffffffffffffff1673ffffffffffffffffffffffffffffffffffffffff1673ffffffffffffffffffffffffffffffffffffffff16815260200160038201805461097d906128ff565b80601f01602080910402602001604051908101604052809291908181526020018280546109a9906128ff565b80156109f65780601f106109cb576101008083540402835291602001916109f6565b820191906000526020600020905b8154815290600101906020018083116109d957829003601f168201915b50505050508152602001600482018054610a0f906128ff565b80601f0160208091040260200160405190810160405280929190818152602001828054610a3b906128ff565b8015610a885780601f10610a5d57610100808354040283529160200191610a88565b820191906000526020600020905b815481529060010190602001808311610a6b57829003601f168201915b505050505081526020016005820160009054906101000a900460ff161515151581526020016005820160019054906101000a900460ff161515151581525050828281518110610ada57610ad961281f565b5b60200260200101819052508080610af090612d9c565b9150506108ba565b508091505090565b60008060009054906101000a900473ffffffffffffffffffffffffffffffffffffffff16905090565b60003330858585604051602001610b44959493929190612e4d565b604051602081830303815290604052805190602001209050600015156001600083815260200190815260200160002060050160019054906101000a900460ff16151514610bc6576040517f08c379a0000000000000000000000000000000000000000000000000000000008152600401610bbd90612f16565b60405180910390fd5b600360003373ffffffffffffffffffffffffffffffffffffffff1673ffffffffffffffffffffffffffffffffffffffff168152602001908152602001600020819080600181540180825580915050600190039060005260206000200160009091909190915055600284604051610c3c91906128b9565b9081526020016040518091039020819080600181540180825580915050600190039060005260206000200160009091909190915055600481908060018154018082558091505060019003906000526020600020016000909190919091505560058190806001815401808255809150506001900390600052602060002001600090919091909150556040518060e001604052808281526020018381526020013373ffffffffffffffffffffffffffffffffffffffff1681526020018581526020018481526020016001151581526020016001151581525060016000838152602001908152602001600020600082015181600001556020820151816001015560408201518160020160006101000a81548173ffffffffffffffffffffffffffffffffffffffff021916908373ffffffffffffffffffffffffffffffffffffffff1602179055506060820151816003019081610d959190612b76565b506080820151816004019081610dab9190612b76565b5060a08201518160050160006101000a81548160ff02191690831515021790555060c08201518160050160016101000a81548160ff0219169083151502179055509050507fd4e7f0796b0d8da9726ac58787a1686b0d41551e7bccd88d23878aa276530b1e81833387876001604051610e2996959493929190612f36565b60405180910390a150505050565b60606000600360008473ffffffffffffffffffffffffffffffffffffffff1673ffffffffffffffffffffffffffffffffffffffff1681526020019081526020016000208054905090508273ffffffffffffffffffffffffffffffffffffffff163373ffffffffffffffffffffffffffffffffffffffff161480610eec5750610ebd610b00565b73ffffffffffffffffffffffffffffffffffffffff163373ffffffffffffffffffffffffffffffffffffffff16145b156111cd5760008167ffffffffffffffff811115610f0d57610f0c612035565b5b604051908082528060200260200182016040528015610f4657816020015b610f33611e40565b815260200190600190039081610f2b5790505b50905060005b808311156111c25760016000600360008873ffffffffffffffffffffffffffffffffffffffff1673ffffffffffffffffffffffffffffffffffffffff1681526020019081526020016000208381548110610fa957610fa861281f565b5b906000526020600020015481526020019081526020016000206040518060e001604052908160008201548152602001600182015481526020016002820160009054906101000a900473ffffffffffffffffffffffffffffffffffffffff1673ffffffffffffffffffffffffffffffffffffffff1673ffffffffffffffffffffffffffffffffffffffff168152602001600382018054611047906128ff565b80601f0160208091040260200160405190810160405280929190818152602001828054611073906128ff565b80156110c05780601f10611095576101008083540402835291602001916110c0565b820191906000526020600020905b8154815290600101906020018083116110a357829003601f168201915b505050505081526020016004820180546110d9906128ff565b80601f0160208091040260200160405190810160405280929190818152602001828054611105906128ff565b80156111525780601f1061112757610100808354040283529160200191611152565b820191906000526020600020905b81548152906001019060200180831161113557829003601f168201915b505050505081526020016005820160009054906101000a900460ff161515151581526020016005820160019054906101000a900460ff1615151515815250508282815181106111a4576111a361281f565b5b602002602001018190525080806111ba90612d9c565b915050610f4c565b5080925050506115ea565b6000805b80821115611285576001151560016000600360008973ffffffffffffffffffffffffffffffffffffffff1673ffffffffffffffffffffffffffffffffffffffff16815260200190815260200160002084815481106112325761123161281f565b5b9060005260206000200154815260200190815260200160002060050160009054906101000a900460ff1615150361127257818061126e90612d9c565b9250505b808061127d90612d9c565b9150506111d1565b5060008167ffffffffffffffff8111156112a2576112a1612035565b5b6040519080825280602002602001820160405280156112db57816020015b6112c8611e40565b8152602001906001900390816112c05790505b50905060005b808311156115e2576001151560016000600360008a73ffffffffffffffffffffffffffffffffffffffff1673ffffffffffffffffffffffffffffffffffffffff16815260200190815260200160002084815481106113425761134161281f565b5b9060005260206000200154815260200190815260200160002060050160009054906101000a900460ff161515036115cf5760016000600360008973ffffffffffffffffffffffffffffffffffffffff1673ffffffffffffffffffffffffffffffffffffffff16815260200190815260200160002083815481106113c8576113c761281f565b5b906000526020600020015481526020019081526020016000206040518060e001604052908160008201548152602001600182015481526020016002820160009054906101000a900473ffffffffffffffffffffffffffffffffffffffff1673ffffffffffffffffffffffffffffffffffffffff1673ffffffffffffffffffffffffffffffffffffffff168152602001600382018054611466906128ff565b80601f0160208091040260200160405190810160405280929190818152602001828054611492906128ff565b80156114df5780601f106114b4576101008083540402835291602001916114df565b820191906000526020600020905b8154815290600101906020018083116114c257829003601f168201915b505050505081526020016004820180546114f8906128ff565b80601f0160208091040260200160405190810160405280929190818152602001828054611524906128ff565b80156115715780601f1061154657610100808354040283529160200191611571565b820191906000526020600020905b81548152906001019060200180831161155457829003601f168201915b505050505081526020016005820160009054906101000a900460ff161515151581526020016005820160019054906101000a900460ff1615151515815250508282815181106115c3576115c261281f565b5b60200260200101819052505b80806115da90612d9c565b9150506112e1565b508093505050505b919050565b60016020528060005260406000206000915090508060000154908060010154908060020160009054906101000a900473ffffffffffffffffffffffffffffffffffffffff1690806003018054611644906128ff565b80601f0160208091040260200160405190810160405280929190818152602001828054611670906128ff565b80156116bd5780601f10611692576101008083540402835291602001916116bd565b820191906000526020600020905b8154815290600101906020018083116116a057829003601f168201915b5050505050908060040180546116d2906128ff565b80601f01602080910402602001604051908101604052809291908181526020018280546116fe906128ff565b801561174b5780601f106117205761010080835404028352916020019161174b565b820191906000526020600020905b81548152906001019060200180831161172e57829003601f168201915b5050505050908060050160009054906101000a900460ff16908060050160019054906101000a900460ff16905087565b6060600060028360405161178f91906128b9565b90815260200160405180910390208054806020026020016040519081016040528092919081815260200182805480156117e757602002820191906000526020600020905b8154815260200190600101908083116117d3575b5050505050905060606000805b80845111156118885760011515600160008684815181106118185761181761281f565b5b6020026020010151815260200190815260200160002060050160009054906101000a900460ff16151503611875578083838151811061185a5761185961281f565b5b602002602001018181525050818061187190612d9c565b9250505b808061188090612d9c565b9150506117f4565b50815167ffffffffffffffff8111156118a4576118a3612035565b5b6040519080825280602002602001820160405280156118dd57816020015b6118ca611e40565b8152602001906001900390816118c25790505b50935060005b8083511115611b335760016000858584815181106119045761190361281f565b5b60200260200101518151811061191d5761191c61281f565b5b602002602001015181526020019081526020016000206040518060e001604052908160008201548152602001600182015481526020016002820160009054906101000a900473ffffffffffffffffffffffffffffffffffffffff1673ffffffffffffffffffffffffffffffffffffffff1673ffffffffffffffffffffffffffffffffffffffff1681526020016003820180546119b8906128ff565b80601f01602080910402602001604051908101604052809291908181526020018280546119e4906128ff565b8015611a315780601f10611a0657610100808354040283529160200191611a31565b820191906000526020600020905b815481529060010190602001808311611a1457829003601f168201915b50505050508152602001600482018054611a4a906128ff565b80601f0160208091040260200160405190810160405280929190818152602001828054611a76906128ff565b8015611ac35780601f10611a9857610100808354040283529160200191611ac3565b820191906000526020600020905b815481529060010190602001808311611aa657829003601f168201915b505050505081526020016005820160009054906101000a900460ff161515151581526020016005820160019054906101000a900460ff161515151581525050858281518110611b1557611b1461281f565b5b60200260200101819052508080611b2b90612d9c565b9150506118e3565b50505050919050565b6060600060058054905067ffffffffffffffff811115611b5f57611b5e612035565b5b604051908082528060200260200182016040528015611b9857816020015b611b85611e40565b815260200190600190039081611b7d5790505b50905060005b806005805490501115611ddc576001600060058381548110611bc357611bc261281f565b5b906000526020600020015481526020019081526020016000206040518060e001604052908160008201548152602001600182015481526020016002820160009054906101000a900473ffffffffffffffffffffffffffffffffffffffff1673ffffffffffffffffffffffffffffffffffffffff1673ffffffffffffffffffffffffffffffffffffffff168152602001600382018054611c61906128ff565b80601f0160208091040260200160405190810160405280929190818152602001828054611c8d906128ff565b8015611cda5780601f10611caf57610100808354040283529160200191611cda565b820191906000526020600020905b815481529060010190602001808311611cbd57829003601f168201915b50505050508152602001600482018054611cf3906128ff565b80601f0160208091040260200160405190810160405280929190818152602001828054611d1f906128ff565b8015611d6c5780601f10611d4157610100808354040283529160200191611d6c565b820191906000526020600020905b815481529060010190602001808311611d4f57829003601f168201915b505050505081526020016005820160009054906101000a900460ff161515151581526020016005820160019054906101000a900460ff161515151581525050828281518110611dbe57611dbd61281f565b5b60200260200101819052508080611dd490612d9c565b915050611b9e565b508091505090565b600080600090505b8280549050811015611e385783838281548110611e0c57611e0b61281f565b5b906000526020600020015403611e255780915050611e3a565b8080611e3090612d9c565b915050611dec565b505b92915050565b6040518060e001604052806000801916815260200160008152602001600073ffffffffffffffffffffffffffffffffffffffff16815260200160608152602001606081526020016000151581526020016000151581525090565b6000604051905090565b600080fd5b600080fd5b600073ffffffffffffffffffffffffffffffffffffffff82169050919050565b6000611ed982611eae565b9050919050565b611ee981611ece565b8114611ef457600080fd5b50565b600081359050611f0681611ee0565b92915050565b6000819050919050565b611f1f81611f0c565b8114611f2a57600080fd5b50565b600081359050611f3c81611f16565b92915050565b60008060408385031215611f5957611f58611ea4565b5b6000611f6785828601611ef7565b9250506020611f7885828601611f2d565b9150509250929050565b6000819050919050565b611f9581611f82565b82525050565b6000602082019050611fb06000830184611f8c565b92915050565b611fbf81611f82565b8114611fca57600080fd5b50565b600081359050611fdc81611fb6565b92915050565b60008115159050919050565b611ff781611fe2565b811461200257600080fd5b50565b60008135905061201481611fee565b92915050565b600080fd5b600080fd5b6000601f19601f8301169050919050565b7f4e487b7100000000000000000000000000000000000000000000000000000000600052604160045260246000fd5b61206d82612024565b810181811067ffffffffffffffff8211171561208c5761208b612035565b5b80604052505050565b600061209f611e9a565b90506120ab8282612064565b919050565b600067ffffffffffffffff8211156120cb576120ca612035565b5b6120d482612024565b9050602081019050919050565b82818337600083830152505050565b60006121036120fe846120b0565b612095565b90508281526020810184848401111561211f5761211e61201f565b5b61212a8482856120e1565b509392505050565b600082601f8301126121475761214661201a565b5b81356121578482602086016120f0565b91505092915050565b60008060006060848603121561217957612178611ea4565b5b600061218786828701611fcd565b935050602061219886828701612005565b925050604084013567ffffffffffffffff8111156121b9576121b8611ea9565b5b6121c586828701612132565b9150509250925092565b600080604083850312156121e6576121e5611ea4565b5b600083013567ffffffffffffffff81111561220457612203611ea9565b5b61221085828601612132565b925050602061222185828601611f2d565b9150509250929050565b60006020828403121561224157612240611ea4565b5b600061224f84828501611fcd565b91505092915050565b61226181611f0c565b82525050565b61227081611ece565b82525050565b600081519050919050565b600082825260208201905092915050565b60005b838110156122b0578082015181840152602081019050612295565b60008484015250505050565b60006122c782612276565b6122d18185612281565b93506122e1818560208601612292565b6122ea81612024565b840191505092915050565b6122fe81611fe2565b82525050565b600060a0820190506123196000830188611f8c565b6123266020830187612258565b6123336040830186612267565b818103606083015261234581856122bc565b905061235460808301846122f5565b9695505050505050565b600081519050919050565b600082825260208201905092915050565b6000819050602082019050919050565b61239381611f82565b82525050565b6123a281611f0c565b82525050565b6123b181611ece565b82525050565b600082825260208201905092915050565b60006123d382612276565b6123dd81856123b7565b93506123ed818560208601612292565b6123f681612024565b840191505092915050565b61240a81611fe2565b82525050565b600060e083016000830151612428600086018261238a565b50602083015161243b6020860182612399565b50604083015161244e60408601826123a8565b506060830151848203606086015261246682826123c8565b9150506080830151848203608086015261248082826123c8565b91505060a083015161249560a0860182612401565b5060c08301516124a860c0860182612401565b508091505092915050565b60006124bf8383612410565b905092915050565b6000602082019050919050565b60006124df8261235e565b6124e98185612369565b9350836020820285016124fb8561237a565b8060005b85811015612537578484038952815161251885826124b3565b9450612523836124c7565b925060208a019950506001810190506124ff565b50829750879550505050505092915050565b6000602082019050818103600083015261256381846124d4565b905092915050565b60006020820190506125806000830184612267565b92915050565b60008060006060848603121561259f5761259e611ea4565b5b600084013567ffffffffffffffff8111156125bd576125bc611ea9565b5b6125c986828701612132565b935050602084013567ffffffffffffffff8111156125ea576125e9611ea9565b5b6125f686828701612132565b925050604061260786828701611f2d565b9150509250925092565b60006020828403121561262757612626611ea4565b5b600061263584828501611ef7565b91505092915050565b600060e082019050612653600083018a611f8c565b6126606020830189612258565b61266d6040830188612267565b818103606083015261267f81876122bc565b9050818103608083015261269381866122bc565b90506126a260a08301856122f5565b6126af60c08301846122f5565b98975050505050505050565b6000602082840312156126d1576126d0611ea4565b5b600082013567ffffffffffffffff8111156126ef576126ee611ea9565b5b6126fb84828501612132565b91505092915050565b7f4f6e6c79207468652053757065726c6f7564206d616e6167657273206f72207460008201527f68652063757261746f72206f66207468697320736f6e672063616e20756e696e60208201527f6465782069742100000000000000000000000000000000000000000000000000604082015250565b6000612786604783612281565b915061279182612704565b606082019050919050565b600060208201905081810360008301526127b581612779565b9050919050565b7f4e487b7100000000000000000000000000000000000000000000000000000000600052601160045260246000fd5b60006127f682611f0c565b915061280183611f0c565b9250828203905081811115612819576128186127bc565b5b92915050565b7f4e487b7100000000000000000000000000000000000000000000000000000000600052603260045260246000fd5b7f4e487b7100000000000000000000000000000000000000000000000000000000600052603160045260246000fd5b600081905092915050565b600061289382612276565b61289d818561287d565b93506128ad818560208601612292565b80840191505092915050565b60006128c58284612888565b915081905092915050565b7f4e487b7100000000000000000000000000000000000000000000000000000000600052602260045260246000fd5b6000600282049050600182168061291757607f821691505b60208210810361292a576129296128d0565b5b50919050565b60008190508160005260206000209050919050565b60008154612952816128ff565b61295c818661287d565b94506001821660008114612977576001811461298c576129bf565b60ff19831686528115158202860193506129bf565b61299585612930565b60005b838110156129b757815481890152600182019150602081019050612998565b838801955050505b50505092915050565b60006129d48284612945565b915081905092915050565b60006020601f8301049050919050565b600082821b905092915050565b600060088302612a2c7fffffffffffffffffffffffffffffffffffffffffffffffffffffffffffffffff826129ef565b612a3686836129ef565b95508019841693508086168417925050509392505050565b6000819050919050565b6000612a73612a6e612a6984611f0c565b612a4e565b611f0c565b9050919050565b6000819050919050565b612a8d83612a58565b612aa1612a9982612a7a565b8484546129fc565b825550505050565b600090565b612ab6612aa9565b612ac1818484612a84565b505050565b5b81811015612ae557612ada600082612aae565b600181019050612ac7565b5050565b601f821115612b2a57612afb81612930565b612b04846129df565b81016020851015612b13578190505b612b27612b1f856129df565b830182612ac6565b50505b505050565b600082821c905092915050565b6000612b4d60001984600802612b2f565b1980831691505092915050565b6000612b668383612b3c565b9150826002028217905092915050565b612b7f82612276565b67ffffffffffffffff811115612b9857612b97612035565b5b612ba282546128ff565b612bad828285612ae9565b600060209050601f831160018114612be05760008415612bce578287015190505b612bd88582612b5a565b865550612c40565b601f198416612bee86612930565b60005b82811015612c1657848901518255600182019150602085019450602081019050612bf1565b86831015612c335784890151612c2f601f891682612b3c565b8355505b6001600288020188555050505b505050505050565b60008154612c55816128ff565b612c5f8186612281565b94506001821660008114612c7a5760018114612c9057612cc3565b60ff198316865281151560200286019350612cc3565b612c9985612930565b60005b83811015612cbb57815481890152600182019150602081019050612c9c565b808801955050505b50505092915050565b6000606082019050612ce16000830186611f8c565b8181036020830152612cf38185612c48565b9050612d0260408301846122f5565b949350505050565b7f4f6e6c79207468652053757065726c6f7564206d616e61676572732063616e2060008201527f7573652074686973206665617475726520210000000000000000000000000000602082015250565b6000612d66603283612281565b9150612d7182612d0a565b604082019050919050565b60006020820190508181036000830152612d9581612d59565b9050919050565b6000612da782611f0c565b91507fffffffffffffffffffffffffffffffffffffffffffffffffffffffffffffffff8203612dd957612dd86127bc565b5b600182019050919050565b60008160601b9050919050565b6000612dfc82612de4565b9050919050565b6000612e0e82612df1565b9050919050565b612e26612e2182611ece565b612e03565b82525050565b6000819050919050565b612e47612e4282611f0c565b612e2c565b82525050565b6000612e598288612e15565b601482019150612e698287612e15565b601482019150612e798286612888565b9150612e858285612888565b9150612e918284612e36565b6020820191508190509695505050505050565b7f5468697320736f6e672077617320616c7265616479206c697374656420696e2060008201527f74686520636174616c6f672e0000000000000000000000000000000000000000602082015250565b6000612f00602c83612281565b9150612f0b82612ea4565b604082019050919050565b60006020820190508181036000830152612f2f81612ef3565b9050919050565b600060c082019050612f4b6000830189611f8c565b612f586020830188612258565b612f656040830187612267565b8181036060830152612f7781866122bc565b90508181036080830152612f8b81856122bc565b9050612f9a60a08301846122f5565b97965050505050505056fea2646970667358221220abb6dd7873248faadcef7c84acbb18afad85eb6c2fbb68a15b2e8d25a327a4ca64736f6c63430008120033",
  "immutableReferences": {},
  "source": "// SPDX-License-Identifier: MIT\npragma solidity ^0.8.17;\n\n/**\n - Superloud Catalog\n - List songs (by karaoke version id, by original version id, by curator...)\n - Index/unindex songs\n*/\ncontract SuperloudCatalog {\n  address private _owner;\n\n  struct KaraokeVersion {\n    bytes32 id_karaoke_version;\n    uint256 created_at;\n    address curator;\n    string id_original_version;\n    string uri_metadata;\n    bool is_indexed;\n    bool exists;\n  }\n\n  // For a given karaoke version id, returns a song\n  mapping(bytes32 => KaraokeVersion) public id_karaoke_version_to_listed_song;\n\n  // For a given original version id, returns songs\n  mapping(string => bytes32[]) public id_original_version_to_karaoke_versions;\n\n  // For a given curator Ethereum address, return this curator's listed songs\n  mapping(address => bytes32[]) public curator_address_to_songs;\n\n  event ListNewKaraokeVersion(\n    bytes32 id_karaoke_version,\n    uint256 created_at,\n    address curator_address,\n    string id_original_version,\n    string uri_metadata,\n    bool is_indexed\n  );\n\n  event UpdateListedKaraokeVersion(bytes32 id_karaoke_version, string uri_metadata, bool is_indexed);\n\n  // Array of all listed songs ids\n  bytes32[] private _listed_karaoke_versions_ids;\n\n  // Array of all indexed/public listed songs ids\n  bytes32[] private _indexed_listed_karaoke_versions_ids;\n\n  constructor() {\n    _owner = msg.sender;\n  }\n\n  /**\n   * Returns the address of the contract owner\n   */\n  function owner() public view returns (address) {\n    return _owner;\n  }\n\n  modifier onlyOwner() {\n    require(owner() == msg.sender, 'Only the Superloud managers can use this feature !');\n    _;\n  }\n\n  /**\n   * Return indexed karaoke version id\n   */\n  function _getIndexedKaraokeVersionId(bytes32 id_karaoke_version, bytes32[] storage list)\n    private\n    view\n    returns (uint256 index)\n  {\n    for (uint256 i = 0; i < list.length; i++) {\n      if (list[i] == id_karaoke_version) {\n        return i;\n      }\n    }\n  }\n\n  /*\n    List & index a new song in the Superloud karaoke catalog\n  */\n  function listNewKaraokeVersion(\n    string memory id_original_version,\n    string memory uri_metadata,\n    uint256 created_at\n  ) external {\n    // Create a unique identifier for the song\n    bytes32 id_karaoke_version = keccak256(\n      abi.encodePacked(msg.sender, address(this), id_original_version, uri_metadata, created_at)\n    );\n\n    // Check is the karaoke version was already listed in the catalog\n    require(\n      id_karaoke_version_to_listed_song[id_karaoke_version].exists == false,\n      'This song was already listed in the catalog.'\n    );\n\n    // Index the created karaoke version to the curator_address<>songs mapping\n    curator_address_to_songs[msg.sender].push(id_karaoke_version);\n\n    // Index the original version (if it wasn't listed)\n    id_original_version_to_karaoke_versions[id_original_version].push(id_karaoke_version);\n\n    // Index the created karaoke version id to the song_id<>song mapping\n    _listed_karaoke_versions_ids.push(id_karaoke_version);\n    _indexed_listed_karaoke_versions_ids.push(id_karaoke_version);\n    // Add our karaoke version on chain !\n    id_karaoke_version_to_listed_song[id_karaoke_version] = KaraokeVersion(\n      // Id of our newly created karaoke version\n      id_karaoke_version,\n      // timestamp (epoch time) of when the karaoke version was listed\n      created_at,\n      // Curator address\n      msg.sender,\n      // Id of the original version (from Spinamp API)\n      id_original_version,\n      // URI of the metadata of our karaoke version (eg: ipfs://<cid> ; ar://<arweave-tx-id> ; https://<some-website> etc. etc.)\n      // Note: this will be used by The Graph\n      // So it's better to host the metadata on IPFS with Infura\n      uri_metadata,\n      // If the song is indexed or not\n      // (indexed song = visible on the front-end ; unindexed songs are not visible on the front-end)\n      true,\n      // If our song exists or not\n      true\n    );\n\n    emit ListNewKaraokeVersion(id_karaoke_version, created_at, msg.sender, id_original_version, uri_metadata, true);\n  }\n\n  /*\n    Unindex a song from the Superloud karaoke catalog\n    Only the curator and the contract owner can do that\n    KaraokeVersions can't be permanently deleted, as some users might buy access to it\n  */\n  function updateKaraokeVersion(\n    bytes32 id_karaoke_version,\n    bool is_indexed,\n    string memory uri_metadata_updated\n  ) external {\n    require(\n      msg.sender == owner() || msg.sender == id_karaoke_version_to_listed_song[id_karaoke_version].curator,\n      'Only the Superloud managers or the curator of this song can unindex it!'\n    );\n    KaraokeVersion storage song_to_update = id_karaoke_version_to_listed_song[id_karaoke_version];\n\n    // If the visibility value of the song was updated\n    if (song_to_update.is_indexed != is_indexed) {\n      id_karaoke_version_to_listed_song[id_karaoke_version].is_indexed = is_indexed;\n      // Update our managed visibility indexer\n      if (is_indexed == true) {\n        _indexed_listed_karaoke_versions_ids.push(id_karaoke_version);\n      } else {\n        _indexed_listed_karaoke_versions_ids[\n          _getIndexedKaraokeVersionId(id_karaoke_version, _indexed_listed_karaoke_versions_ids)\n        ] = _indexed_listed_karaoke_versions_ids[_indexed_listed_karaoke_versions_ids.length - 1];\n        _indexed_listed_karaoke_versions_ids.pop();\n      }\n    }\n\n    // If metadata uri of the karaoke version\n    if (keccak256(abi.encodePacked(song_to_update.uri_metadata)) != keccak256(abi.encodePacked(uri_metadata_updated))) {\n      id_karaoke_version_to_listed_song[id_karaoke_version].uri_metadata = uri_metadata_updated;\n    }\n    KaraokeVersion storage updated_song = id_karaoke_version_to_listed_song[id_karaoke_version];\n    emit UpdateListedKaraokeVersion(id_karaoke_version, updated_song.uri_metadata, updated_song.is_indexed);\n  }\n\n  /*\n    Get all karaoke versions from the Superloud karaoke catalog\n  */\n  function getAllKaraokeVersions() public view onlyOwner returns (KaraokeVersion[] memory) {\n    KaraokeVersion[] memory all_listed_songs = new KaraokeVersion[](_listed_karaoke_versions_ids.length);\n    for (uint256 i; _listed_karaoke_versions_ids.length > i; i++) {\n      all_listed_songs[i] = id_karaoke_version_to_listed_song[_listed_karaoke_versions_ids[i]];\n    }\n    return all_listed_songs;\n  }\n\n  /*\n    Get all indexed (visible on the front-end) karaoke versions from the Superloud karaoke catalog\n  */\n  function getIndexedKaraokeVersions() public view returns (KaraokeVersion[] memory) {\n    KaraokeVersion[] memory indexed_songs = new KaraokeVersion[](_indexed_listed_karaoke_versions_ids.length);\n    for (uint256 i; _indexed_listed_karaoke_versions_ids.length > i; i++) {\n      indexed_songs[i] = id_karaoke_version_to_listed_song[_indexed_listed_karaoke_versions_ids[i]];\n    }\n    return indexed_songs;\n  }\n\n  /*\n    Get a curator's listed karaoke versions (curator & contract owner only)\n  */\n  function getKaraokeVersionsByCurator(address curator) public view returns (KaraokeVersion[] memory songs) {\n    uint256 total_amount_songs_listed_by_curator = curator_address_to_songs[curator].length;\n\n    // If the wallet address calling this function is the curator or the contract owner\n    if (msg.sender == curator || msg.sender == owner()) {\n      // Return all songs listed by this curator\n      KaraokeVersion[] memory all_songs_listed_by_curator = new KaraokeVersion[](total_amount_songs_listed_by_curator);\n      for (uint256 index; total_amount_songs_listed_by_curator > index; index++) {\n        all_songs_listed_by_curator[index] = id_karaoke_version_to_listed_song[\n          curator_address_to_songs[curator][index]\n        ];\n      }\n      return all_songs_listed_by_curator;\n    } else {\n      // Otherwise, only return public (is_indexed = true) karaoke versions\n      uint256 public_amount_songs_listed_by_curator;\n      for (uint256 i; public_amount_songs_listed_by_curator > i; i++) {\n        if (id_karaoke_version_to_listed_song[curator_address_to_songs[curator][i]].is_indexed == true) {\n          public_amount_songs_listed_by_curator++;\n        }\n      }\n      KaraokeVersion[] memory indexed_songs_listed_by_curator = new KaraokeVersion[](\n        public_amount_songs_listed_by_curator\n      );\n      for (uint256 i; public_amount_songs_listed_by_curator > i; i++) {\n        if (id_karaoke_version_to_listed_song[curator_address_to_songs[curator][i]].is_indexed == true) {\n          indexed_songs_listed_by_curator[i] = id_karaoke_version_to_listed_song[curator_address_to_songs[curator][i]];\n        }\n      }\n      return indexed_songs_listed_by_curator;\n    }\n  }\n\n  /**\n  Get a list of all karaoke versions for a given original version id\n */\n  function getKaraokeVersionsForOriginalVersion(string memory id_original_version)\n    public\n    view\n    returns (KaraokeVersion[] memory indexed_karaoke_versions)\n  {\n    bytes32[] memory karaoke_versions = id_original_version_to_karaoke_versions[id_original_version];\n    uint256[] memory indexed_karaoke_version_indexes;\n\n    uint256 counter = 0;\n    for (uint256 i; karaoke_versions.length > i; i++) {\n      if (id_karaoke_version_to_listed_song[karaoke_versions[i]].is_indexed == true) {\n        indexed_karaoke_version_indexes[counter] = i;\n        counter++;\n      }\n    }\n    indexed_karaoke_versions = new KaraokeVersion[](indexed_karaoke_version_indexes.length);\n    for (uint256 i; indexed_karaoke_version_indexes.length > i; i++) {\n      indexed_karaoke_versions[i] = id_karaoke_version_to_listed_song[\n        karaoke_versions[indexed_karaoke_version_indexes[i]]\n      ];\n    }\n    return indexed_karaoke_versions;\n  }\n\n  /*\n    Get a listed karaoke version by its id\n  */\n  function getKaraokeVersionById(bytes32 id)\n    public\n    view\n    returns (\n      bytes32 id_karaoke_version,\n      uint256 created_at,\n      address curator,\n      string memory uri_metadata,\n      bool is_indexed\n    )\n  {\n    KaraokeVersion memory _song = id_karaoke_version_to_listed_song[id];\n    return (id, _song.created_at, _song.curator, _song.uri_metadata, _song.is_indexed);\n  }\n}\n",
  "sourcePath": "/home/naomi/dev/perso/superloud/apps/smartcontracts-solidity/contracts/SuperloudCatalog.sol",
  "compiler": {
    "name": "solc",
    "version": "0.8.18+commit.87f61d96.Emscripten.clang"
  },
  "schemaVersion": "3.4.11",
  "updatedAt": "2023-02-17T20:26:28.651Z",
  "networkType": "ethereum",
  "devdoc": {
    "kind": "dev",
    "methods": {},
    "version": 1
  },
  "userdoc": {
    "kind": "user",
    "methods": {
      "getKaraokeVersionsForOriginalVersion(string)": {
        "notice": "Get a list of all karaoke versions for a given original version id"
      },
      "owner()": {
        "notice": "Returns the address of the contract owner"
      }
    },
    "notice": "- Superloud Catalog - List songs (by karaoke version id, by original version id, by curator...) - Index/unindex songs",
    "version": 1
  }
}