{
  "contractName": "SuperloudCatalog",
  "abi": [
    {
      "inputs": [],
      "stateMutability": "nonpayable",
      "type": "constructor"
    },
    {
      "anonymous": false,
      "inputs": [
        {
          "indexed": false,
          "internalType": "bytes32",
          "name": "id_karaoke_version",
          "type": "bytes32"
        },
        {
          "indexed": false,
          "internalType": "uint256",
          "name": "created_at",
          "type": "uint256"
        },
        {
          "indexed": false,
          "internalType": "address",
          "name": "curator_address",
          "type": "address"
        },
        {
          "indexed": false,
          "internalType": "string",
          "name": "id_original_version",
          "type": "string"
        },
        {
          "indexed": false,
          "internalType": "string",
          "name": "uri_original_version_metadata",
          "type": "string"
        },
        {
          "indexed": false,
          "internalType": "string",
          "name": "uri_karaoke_version_metadata",
          "type": "string"
        },
        {
          "indexed": false,
          "internalType": "bool",
          "name": "is_indexed",
          "type": "bool"
        }
      ],
      "name": "ListNewKaraokeVersion",
      "type": "event"
    },
    {
      "anonymous": false,
      "inputs": [
        {
          "indexed": false,
          "internalType": "bytes32",
          "name": "id_karaoke_version",
          "type": "bytes32"
        },
        {
          "indexed": false,
          "internalType": "string",
          "name": "uri_karaoke_version_metadata",
          "type": "string"
        },
        {
          "indexed": false,
          "internalType": "bool",
          "name": "is_indexed",
          "type": "bool"
        }
      ],
      "name": "UpdateListedKaraokeVersion",
      "type": "event"
    },
    {
      "inputs": [
        {
          "internalType": "address",
          "name": "",
          "type": "address"
        },
        {
          "internalType": "uint256",
          "name": "",
          "type": "uint256"
        }
      ],
      "name": "curator_address_to_songs",
      "outputs": [
        {
          "internalType": "bytes32",
          "name": "",
          "type": "bytes32"
        }
      ],
      "stateMutability": "view",
      "type": "function",
      "constant": true
    },
    {
      "inputs": [
        {
          "internalType": "bytes32",
          "name": "",
          "type": "bytes32"
        }
      ],
      "name": "id_karaoke_version_to_listed_song",
      "outputs": [
        {
          "internalType": "bytes32",
          "name": "id_karaoke_version",
          "type": "bytes32"
        },
        {
          "internalType": "uint256",
          "name": "created_at",
          "type": "uint256"
        },
        {
          "internalType": "address",
          "name": "curator",
          "type": "address"
        },
        {
          "internalType": "string",
          "name": "id_original_version",
          "type": "string"
        },
        {
          "internalType": "string",
          "name": "uri_original_version_metadata",
          "type": "string"
        },
        {
          "internalType": "string",
          "name": "uri_karaoke_version_metadata",
          "type": "string"
        },
        {
          "internalType": "bool",
          "name": "is_indexed",
          "type": "bool"
        },
        {
          "internalType": "bool",
          "name": "exists",
          "type": "bool"
        }
      ],
      "stateMutability": "view",
      "type": "function",
      "constant": true
    },
    {
      "inputs": [
        {
          "internalType": "string",
          "name": "",
          "type": "string"
        },
        {
          "internalType": "uint256",
          "name": "",
          "type": "uint256"
        }
      ],
      "name": "id_original_version_to_karaoke_versions",
      "outputs": [
        {
          "internalType": "bytes32",
          "name": "",
          "type": "bytes32"
        }
      ],
      "stateMutability": "view",
      "type": "function",
      "constant": true
    },
    {
      "inputs": [],
      "name": "owner",
      "outputs": [
        {
          "internalType": "address",
          "name": "",
          "type": "address"
        }
      ],
      "stateMutability": "view",
      "type": "function",
      "constant": true
    },
    {
      "inputs": [
        {
          "internalType": "string",
          "name": "id_original_version",
          "type": "string"
        },
        {
          "internalType": "string",
          "name": "uri_original_version_metadata",
          "type": "string"
        },
        {
          "internalType": "string",
          "name": "uri_karaoke_version_metadata",
          "type": "string"
        },
        {
          "internalType": "uint256",
          "name": "created_at",
          "type": "uint256"
        }
      ],
      "name": "listNewKaraokeVersion",
      "outputs": [],
      "stateMutability": "nonpayable",
      "type": "function"
    },
    {
      "inputs": [
        {
          "internalType": "bytes32",
          "name": "id_karaoke_version",
          "type": "bytes32"
        },
        {
          "internalType": "bool",
          "name": "is_indexed",
          "type": "bool"
        },
        {
          "internalType": "string",
          "name": "uri_karaoke_version_metadata_updated",
          "type": "string"
        }
      ],
      "name": "updateKaraokeVersion",
      "outputs": [],
      "stateMutability": "nonpayable",
      "type": "function"
    },
    {
      "inputs": [],
      "name": "getAllKaraokeVersions",
      "outputs": [
        {
          "components": [
            {
              "internalType": "bytes32",
              "name": "id_karaoke_version",
              "type": "bytes32"
            },
            {
              "internalType": "uint256",
              "name": "created_at",
              "type": "uint256"
            },
            {
              "internalType": "address",
              "name": "curator",
              "type": "address"
            },
            {
              "internalType": "string",
              "name": "id_original_version",
              "type": "string"
            },
            {
              "internalType": "string",
              "name": "uri_original_version_metadata",
              "type": "string"
            },
            {
              "internalType": "string",
              "name": "uri_karaoke_version_metadata",
              "type": "string"
            },
            {
              "internalType": "bool",
              "name": "is_indexed",
              "type": "bool"
            },
            {
              "internalType": "bool",
              "name": "exists",
              "type": "bool"
            }
          ],
          "internalType": "struct SuperloudCatalog.KaraokeVersion[]",
          "name": "",
          "type": "tuple[]"
        }
      ],
      "stateMutability": "view",
      "type": "function",
      "constant": true
    },
    {
      "inputs": [],
      "name": "getIndexedKaraokeVersions",
      "outputs": [
        {
          "components": [
            {
              "internalType": "bytes32",
              "name": "id_karaoke_version",
              "type": "bytes32"
            },
            {
              "internalType": "uint256",
              "name": "created_at",
              "type": "uint256"
            },
            {
              "internalType": "address",
              "name": "curator",
              "type": "address"
            },
            {
              "internalType": "string",
              "name": "id_original_version",
              "type": "string"
            },
            {
              "internalType": "string",
              "name": "uri_original_version_metadata",
              "type": "string"
            },
            {
              "internalType": "string",
              "name": "uri_karaoke_version_metadata",
              "type": "string"
            },
            {
              "internalType": "bool",
              "name": "is_indexed",
              "type": "bool"
            },
            {
              "internalType": "bool",
              "name": "exists",
              "type": "bool"
            }
          ],
          "internalType": "struct SuperloudCatalog.KaraokeVersion[]",
          "name": "",
          "type": "tuple[]"
        }
      ],
      "stateMutability": "view",
      "type": "function",
      "constant": true
    },
    {
      "inputs": [
        {
          "internalType": "address",
          "name": "curator",
          "type": "address"
        }
      ],
      "name": "getKaraokeVersionsByCurator",
      "outputs": [
        {
          "components": [
            {
              "internalType": "bytes32",
              "name": "id_karaoke_version",
              "type": "bytes32"
            },
            {
              "internalType": "uint256",
              "name": "created_at",
              "type": "uint256"
            },
            {
              "internalType": "address",
              "name": "curator",
              "type": "address"
            },
            {
              "internalType": "string",
              "name": "id_original_version",
              "type": "string"
            },
            {
              "internalType": "string",
              "name": "uri_original_version_metadata",
              "type": "string"
            },
            {
              "internalType": "string",
              "name": "uri_karaoke_version_metadata",
              "type": "string"
            },
            {
              "internalType": "bool",
              "name": "is_indexed",
              "type": "bool"
            },
            {
              "internalType": "bool",
              "name": "exists",
              "type": "bool"
            }
          ],
          "internalType": "struct SuperloudCatalog.KaraokeVersion[]",
          "name": "songs",
          "type": "tuple[]"
        }
      ],
      "stateMutability": "view",
      "type": "function",
      "constant": true
    },
    {
      "inputs": [
        {
          "internalType": "string",
          "name": "id_original_version",
          "type": "string"
        }
      ],
      "name": "getKaraokeVersionsForOriginalVersion",
      "outputs": [
        {
          "components": [
            {
              "internalType": "bytes32",
              "name": "id_karaoke_version",
              "type": "bytes32"
            },
            {
              "internalType": "uint256",
              "name": "created_at",
              "type": "uint256"
            },
            {
              "internalType": "address",
              "name": "curator",
              "type": "address"
            },
            {
              "internalType": "string",
              "name": "id_original_version",
              "type": "string"
            },
            {
              "internalType": "string",
              "name": "uri_original_version_metadata",
              "type": "string"
            },
            {
              "internalType": "string",
              "name": "uri_karaoke_version_metadata",
              "type": "string"
            },
            {
              "internalType": "bool",
              "name": "is_indexed",
              "type": "bool"
            },
            {
              "internalType": "bool",
              "name": "exists",
              "type": "bool"
            }
          ],
          "internalType": "struct SuperloudCatalog.KaraokeVersion[]",
          "name": "indexed_karaoke_versions",
          "type": "tuple[]"
        }
      ],
      "stateMutability": "view",
      "type": "function",
      "constant": true
    },
    {
      "inputs": [
        {
          "internalType": "bytes32",
          "name": "id",
          "type": "bytes32"
        }
      ],
      "name": "getKaraokeVersionById",
      "outputs": [
        {
          "internalType": "bytes32",
          "name": "id_karaoke_version",
          "type": "bytes32"
        },
        {
          "internalType": "uint256",
          "name": "created_at",
          "type": "uint256"
        },
        {
          "internalType": "address",
          "name": "curator",
          "type": "address"
        },
        {
          "internalType": "string",
          "name": "uri_original_version_metadata",
          "type": "string"
        },
        {
          "internalType": "string",
          "name": "uri_karaoke_version_metadata",
          "type": "string"
        },
        {
          "internalType": "bool",
          "name": "is_indexed",
          "type": "bool"
        }
      ],
      "stateMutability": "view",
      "type": "function",
      "constant": true
    }
  ],
  "bytecode": "0x608060405234801561001057600080fd5b50336000806101000a81548173ffffffffffffffffffffffffffffffffffffffff021916908373ffffffffffffffffffffffffffffffffffffffff1602179055506134a7806100606000396000f3fe608060405234801561001057600080fd5b50600436106100a95760003560e01c80637a6a6c48116100715780637a6a6c481461017b5780638da5cb5b14610199578063be28ec81146101b7578063dfa085e0146101e7578063f126b42c1461021e578063fbf517b81461024e576100a9565b806340914810146100ae57806347352618146100de57806350aa568f146100fa5780636a1d1b341461011657806371bd3f2b14610146575b600080fd5b6100c860048036038101906100c39190612376565b61026c565b6040516100d591906123cf565b60405180910390f35b6100f860048036038101906100f39190612594565b61029d565b005b610114600480360381019061010f9190612603565b610587565b005b610130600480360381019061012b91906126be565b6108b7565b60405161013d91906123cf565b60405180910390f35b610160600480360381019061015b919061271a565b6108fe565b604051610172969594939291906127f3565b60405180910390f35b610183610bb0565b6040516101909190612a68565b60405180910390f35b6101a1610f60565b6040516101ae9190612a8a565b60405180910390f35b6101d160048036038101906101cc9190612aa5565b610f89565b6040516101de9190612a68565b60405180910390f35b61020160048036038101906101fc919061271a565b611867565b604051610215989796959493929190612ad2565b60405180910390f35b61023860048036038101906102339190612b65565b611a81565b6040516102459190612a68565b60405180910390f35b610256611ed5565b6040516102639190612a68565b60405180910390f35b6003602052816000526040600020818154811061028857600080fd5b90600052602060002001600091509150505481565b6102a5610f60565b73ffffffffffffffffffffffffffffffffffffffff163373ffffffffffffffffffffffffffffffffffffffff16148061033f57506001600084815260200190815260200160002060020160009054906101000a900473ffffffffffffffffffffffffffffffffffffffff1673ffffffffffffffffffffffffffffffffffffffff163373ffffffffffffffffffffffffffffffffffffffff16145b61037e576040517f08c379a000000000000000000000000000000000000000000000000000000000815260040161037590612c46565b60405180910390fd5b60006001600085815260200190815260200160002090508215158160060160009054906101000a900460ff1615151461049f57826001600086815260200190815260200160002060060160006101000a81548160ff021916908315150217905550600115158315150361041957600584908060018154018082558091505060019003906000526020600020016000909190919091505561049e565b6005600160058054905061042d9190612c95565b8154811061043e5761043d612cc9565b5b90600052602060002001546005610456866005612210565b8154811061046757610466612cc9565b5b9060005260206000200181905550600580548061048757610486612cf8565b5b600190038181906000526020600020016000905590555b5b816040516020016104b09190612d63565b60405160208183030381529060405280519060200120816005016040516020016104da9190612e72565b604051602081830303815290604052805190602001201461051a57816001600086815260200190815260200160002060050190816105189190613020565b505b60006001600086815260200190815260200160002090507ff39556f77a8379fec9e5d3096016a5b01901e35ef13349ff57bf6592b9f12df685826005018360060160009054906101000a900460ff1660405161057893929190613176565b60405180910390a15050505050565b60003330868686866040516020016105a49695949392919061321d565b604051602081830303815290604052805190602001209050600015156001600083815260200190815260200160002060060160019054906101000a900460ff16151514610626576040517f08c379a000000000000000000000000000000000000000000000000000000000815260040161061d906132f3565b60405180910390fd5b600360003373ffffffffffffffffffffffffffffffffffffffff1673ffffffffffffffffffffffffffffffffffffffff16815260200190815260200160002081908060018154018082558091505060019003906000526020600020016000909190919091505560028560405161069c9190612d63565b9081526020016040518091039020819080600181540180825580915050600190039060005260206000200160009091909190915055600481908060018154018082558091505060019003906000526020600020016000909190919091505560058190806001815401808255809150506001900390600052602060002001600090919091909150556040518061010001604052808281526020018381526020013373ffffffffffffffffffffffffffffffffffffffff1681526020018681526020018581526020018481526020016001151581526020016001151581525060016000838152602001908152602001600020600082015181600001556020820151816001015560408201518160020160006101000a81548173ffffffffffffffffffffffffffffffffffffffff021916908373ffffffffffffffffffffffffffffffffffffffff16021790555060608201518160030190816107fc9190613020565b5060808201518160040190816108129190613020565b5060a08201518160050190816108289190613020565b5060c08201518160060160006101000a81548160ff02191690831515021790555060e08201518160060160016101000a81548160ff0219169083151502179055509050507f524fc1bc4031616fe8f5f478f147fee7570c6812c4cc053bba077b62f1effed881833388888860016040516108a89796959493929190613313565b60405180910390a15050505050565b60028280516020810182018051848252602083016020850120818352809550505050505081815481106108e957600080fd5b90600052602060002001600091509150505481565b6000806000606080600080600160008981526020019081526020016000206040518061010001604052908160008201548152602001600182015481526020016002820160009054906101000a900473ffffffffffffffffffffffffffffffffffffffff1673ffffffffffffffffffffffffffffffffffffffff1673ffffffffffffffffffffffffffffffffffffffff1681526020016003820180546109a290612da9565b80601f01602080910402602001604051908101604052809291908181526020018280546109ce90612da9565b8015610a1b5780601f106109f057610100808354040283529160200191610a1b565b820191906000526020600020905b8154815290600101906020018083116109fe57829003601f168201915b50505050508152602001600482018054610a3490612da9565b80601f0160208091040260200160405190810160405280929190818152602001828054610a6090612da9565b8015610aad5780601f10610a8257610100808354040283529160200191610aad565b820191906000526020600020905b815481529060010190602001808311610a9057829003601f168201915b50505050508152602001600582018054610ac690612da9565b80601f0160208091040260200160405190810160405280929190818152602001828054610af290612da9565b8015610b3f5780601f10610b1457610100808354040283529160200191610b3f565b820191906000526020600020905b815481529060010190602001808311610b2257829003601f168201915b505050505081526020016006820160009054906101000a900460ff161515151581526020016006820160019054906101000a900460ff1615151515815250509050878160200151826040015183608001518460a001518560c001519650965096509650965096505091939550919395565b60603373ffffffffffffffffffffffffffffffffffffffff16610bd1610f60565b73ffffffffffffffffffffffffffffffffffffffff1614610c27576040517f08c379a0000000000000000000000000000000000000000000000000000000008152600401610c1e90613409565b60405180910390fd5b600060048054905067ffffffffffffffff811115610c4857610c47612469565b5b604051908082528060200260200182016040528015610c8157816020015b610c6e61226c565b815260200190600190039081610c665790505b50905060005b806004805490501115610f58576001600060048381548110610cac57610cab612cc9565b5b906000526020600020015481526020019081526020016000206040518061010001604052908160008201548152602001600182015481526020016002820160009054906101000a900473ffffffffffffffffffffffffffffffffffffffff1673ffffffffffffffffffffffffffffffffffffffff1673ffffffffffffffffffffffffffffffffffffffff168152602001600382018054610d4b90612da9565b80601f0160208091040260200160405190810160405280929190818152602001828054610d7790612da9565b8015610dc45780601f10610d9957610100808354040283529160200191610dc4565b820191906000526020600020905b815481529060010190602001808311610da757829003601f168201915b50505050508152602001600482018054610ddd90612da9565b80601f0160208091040260200160405190810160405280929190818152602001828054610e0990612da9565b8015610e565780601f10610e2b57610100808354040283529160200191610e56565b820191906000526020600020905b815481529060010190602001808311610e3957829003601f168201915b50505050508152602001600582018054610e6f90612da9565b80601f0160208091040260200160405190810160405280929190818152602001828054610e9b90612da9565b8015610ee85780601f10610ebd57610100808354040283529160200191610ee8565b820191906000526020600020905b815481529060010190602001808311610ecb57829003601f168201915b505050505081526020016006820160009054906101000a900460ff161515151581526020016006820160019054906101000a900460ff161515151581525050828281518110610f3a57610f39612cc9565b5b60200260200101819052508080610f5090613429565b915050610c87565b508091505090565b60008060009054906101000a900473ffffffffffffffffffffffffffffffffffffffff16905090565b60606000600360008473ffffffffffffffffffffffffffffffffffffffff1673ffffffffffffffffffffffffffffffffffffffff1681526020019081526020016000208054905090508273ffffffffffffffffffffffffffffffffffffffff163373ffffffffffffffffffffffffffffffffffffffff16148061103e575061100f610f60565b73ffffffffffffffffffffffffffffffffffffffff163373ffffffffffffffffffffffffffffffffffffffff16145b156113b25760008167ffffffffffffffff81111561105f5761105e612469565b5b60405190808252806020026020018201604052801561109857816020015b61108561226c565b81526020019060019003908161107d5790505b50905060005b808311156113a75760016000600360008873ffffffffffffffffffffffffffffffffffffffff1673ffffffffffffffffffffffffffffffffffffffff16815260200190815260200160002083815481106110fb576110fa612cc9565b5b906000526020600020015481526020019081526020016000206040518061010001604052908160008201548152602001600182015481526020016002820160009054906101000a900473ffffffffffffffffffffffffffffffffffffffff1673ffffffffffffffffffffffffffffffffffffffff1673ffffffffffffffffffffffffffffffffffffffff16815260200160038201805461119a90612da9565b80601f01602080910402602001604051908101604052809291908181526020018280546111c690612da9565b80156112135780601f106111e857610100808354040283529160200191611213565b820191906000526020600020905b8154815290600101906020018083116111f657829003601f168201915b5050505050815260200160048201805461122c90612da9565b80601f016020809104026020016040519081016040528092919081815260200182805461125890612da9565b80156112a55780601f1061127a576101008083540402835291602001916112a5565b820191906000526020600020905b81548152906001019060200180831161128857829003601f168201915b505050505081526020016005820180546112be90612da9565b80601f01602080910402602001604051908101604052809291908181526020018280546112ea90612da9565b80156113375780601f1061130c57610100808354040283529160200191611337565b820191906000526020600020905b81548152906001019060200180831161131a57829003601f168201915b505050505081526020016006820160009054906101000a900460ff161515151581526020016006820160019054906101000a900460ff16151515158152505082828151811061138957611388612cc9565b5b6020026020010181905250808061139f90613429565b91505061109e565b508092505050611862565b6000805b8082111561146a576001151560016000600360008973ffffffffffffffffffffffffffffffffffffffff1673ffffffffffffffffffffffffffffffffffffffff168152602001908152602001600020848154811061141757611416612cc9565b5b9060005260206000200154815260200190815260200160002060060160009054906101000a900460ff1615150361145757818061145390613429565b9250505b808061146290613429565b9150506113b6565b5060008167ffffffffffffffff81111561148757611486612469565b5b6040519080825280602002602001820160405280156114c057816020015b6114ad61226c565b8152602001906001900390816114a55790505b50905060005b8083111561185a576001151560016000600360008a73ffffffffffffffffffffffffffffffffffffffff1673ffffffffffffffffffffffffffffffffffffffff168152602001908152602001600020848154811061152757611526612cc9565b5b9060005260206000200154815260200190815260200160002060060160009054906101000a900460ff161515036118475760016000600360008973ffffffffffffffffffffffffffffffffffffffff1673ffffffffffffffffffffffffffffffffffffffff16815260200190815260200160002083815481106115ad576115ac612cc9565b5b906000526020600020015481526020019081526020016000206040518061010001604052908160008201548152602001600182015481526020016002820160009054906101000a900473ffffffffffffffffffffffffffffffffffffffff1673ffffffffffffffffffffffffffffffffffffffff1673ffffffffffffffffffffffffffffffffffffffff16815260200160038201805461164c90612da9565b80601f016020809104026020016040519081016040528092919081815260200182805461167890612da9565b80156116c55780601f1061169a576101008083540402835291602001916116c5565b820191906000526020600020905b8154815290600101906020018083116116a857829003601f168201915b505050505081526020016004820180546116de90612da9565b80601f016020809104026020016040519081016040528092919081815260200182805461170a90612da9565b80156117575780601f1061172c57610100808354040283529160200191611757565b820191906000526020600020905b81548152906001019060200180831161173a57829003601f168201915b5050505050815260200160058201805461177090612da9565b80601f016020809104026020016040519081016040528092919081815260200182805461179c90612da9565b80156117e95780601f106117be576101008083540402835291602001916117e9565b820191906000526020600020905b8154815290600101906020018083116117cc57829003601f168201915b505050505081526020016006820160009054906101000a900460ff161515151581526020016006820160019054906101000a900460ff16151515158152505082828151811061183b5761183a612cc9565b5b60200260200101819052505b808061185290613429565b9150506114c6565b508093505050505b919050565b60016020528060005260406000206000915090508060000154908060010154908060020160009054906101000a900473ffffffffffffffffffffffffffffffffffffffff16908060030180546118bc90612da9565b80601f01602080910402602001604051908101604052809291908181526020018280546118e890612da9565b80156119355780601f1061190a57610100808354040283529160200191611935565b820191906000526020600020905b81548152906001019060200180831161191857829003601f168201915b50505050509080600401805461194a90612da9565b80601f016020809104026020016040519081016040528092919081815260200182805461197690612da9565b80156119c35780601f10611998576101008083540402835291602001916119c3565b820191906000526020600020905b8154815290600101906020018083116119a657829003601f168201915b5050505050908060050180546119d890612da9565b80601f0160208091040260200160405190810160405280929190818152602001828054611a0490612da9565b8015611a515780601f10611a2657610100808354040283529160200191611a51565b820191906000526020600020905b815481529060010190602001808311611a3457829003601f168201915b5050505050908060060160009054906101000a900460ff16908060060160019054906101000a900460ff16905088565b60606000600283604051611a959190612d63565b9081526020016040518091039020805480602002602001604051908101604052809291908181526020018280548015611aed57602002820191906000526020600020905b815481526020019060010190808311611ad9575b5050505050905060606000805b8084511115611b8e576001151560016000868481518110611b1e57611b1d612cc9565b5b6020026020010151815260200190815260200160002060060160009054906101000a900460ff16151503611b7b5780838381518110611b6057611b5f612cc9565b5b6020026020010181815250508180611b7790613429565b9250505b8080611b8690613429565b915050611afa565b50815167ffffffffffffffff811115611baa57611ba9612469565b5b604051908082528060200260200182016040528015611be357816020015b611bd061226c565b815260200190600190039081611bc85790505b50935060005b8083511115611ecc576001600085858481518110611c0a57611c09612cc9565b5b602002602001015181518110611c2357611c22612cc9565b5b602002602001015181526020019081526020016000206040518061010001604052908160008201548152602001600182015481526020016002820160009054906101000a900473ffffffffffffffffffffffffffffffffffffffff1673ffffffffffffffffffffffffffffffffffffffff1673ffffffffffffffffffffffffffffffffffffffff168152602001600382018054611cbf90612da9565b80601f0160208091040260200160405190810160405280929190818152602001828054611ceb90612da9565b8015611d385780601f10611d0d57610100808354040283529160200191611d38565b820191906000526020600020905b815481529060010190602001808311611d1b57829003601f168201915b50505050508152602001600482018054611d5190612da9565b80601f0160208091040260200160405190810160405280929190818152602001828054611d7d90612da9565b8015611dca5780601f10611d9f57610100808354040283529160200191611dca565b820191906000526020600020905b815481529060010190602001808311611dad57829003601f168201915b50505050508152602001600582018054611de390612da9565b80601f0160208091040260200160405190810160405280929190818152602001828054611e0f90612da9565b8015611e5c5780601f10611e3157610100808354040283529160200191611e5c565b820191906000526020600020905b815481529060010190602001808311611e3f57829003601f168201915b505050505081526020016006820160009054906101000a900460ff161515151581526020016006820160019054906101000a900460ff161515151581525050858281518110611eae57611ead612cc9565b5b60200260200101819052508080611ec490613429565b915050611be9565b50505050919050565b6060600060058054905067ffffffffffffffff811115611ef857611ef7612469565b5b604051908082528060200260200182016040528015611f3157816020015b611f1e61226c565b815260200190600190039081611f165790505b50905060005b806005805490501115612208576001600060058381548110611f5c57611f5b612cc9565b5b906000526020600020015481526020019081526020016000206040518061010001604052908160008201548152602001600182015481526020016002820160009054906101000a900473ffffffffffffffffffffffffffffffffffffffff1673ffffffffffffffffffffffffffffffffffffffff1673ffffffffffffffffffffffffffffffffffffffff168152602001600382018054611ffb90612da9565b80601f016020809104026020016040519081016040528092919081815260200182805461202790612da9565b80156120745780601f1061204957610100808354040283529160200191612074565b820191906000526020600020905b81548152906001019060200180831161205757829003601f168201915b5050505050815260200160048201805461208d90612da9565b80601f01602080910402602001604051908101604052809291908181526020018280546120b990612da9565b80156121065780601f106120db57610100808354040283529160200191612106565b820191906000526020600020905b8154815290600101906020018083116120e957829003601f168201915b5050505050815260200160058201805461211f90612da9565b80601f016020809104026020016040519081016040528092919081815260200182805461214b90612da9565b80156121985780601f1061216d57610100808354040283529160200191612198565b820191906000526020600020905b81548152906001019060200180831161217b57829003601f168201915b505050505081526020016006820160009054906101000a900460ff161515151581526020016006820160019054906101000a900460ff1615151515815250508282815181106121ea576121e9612cc9565b5b6020026020010181905250808061220090613429565b915050611f37565b508091505090565b600080600090505b8280549050811015612264578383828154811061223857612237612cc9565b5b9060005260206000200154036122515780915050612266565b808061225c90613429565b915050612218565b505b92915050565b6040518061010001604052806000801916815260200160008152602001600073ffffffffffffffffffffffffffffffffffffffff1681526020016060815260200160608152602001606081526020016000151581526020016000151581525090565b6000604051905090565b600080fd5b600080fd5b600073ffffffffffffffffffffffffffffffffffffffff82169050919050565b600061230d826122e2565b9050919050565b61231d81612302565b811461232857600080fd5b50565b60008135905061233a81612314565b92915050565b6000819050919050565b61235381612340565b811461235e57600080fd5b50565b6000813590506123708161234a565b92915050565b6000806040838503121561238d5761238c6122d8565b5b600061239b8582860161232b565b92505060206123ac85828601612361565b9150509250929050565b6000819050919050565b6123c9816123b6565b82525050565b60006020820190506123e460008301846123c0565b92915050565b6123f3816123b6565b81146123fe57600080fd5b50565b600081359050612410816123ea565b92915050565b60008115159050919050565b61242b81612416565b811461243657600080fd5b50565b60008135905061244881612422565b92915050565b600080fd5b600080fd5b6000601f19601f8301169050919050565b7f4e487b7100000000000000000000000000000000000000000000000000000000600052604160045260246000fd5b6124a182612458565b810181811067ffffffffffffffff821117156124c0576124bf612469565b5b80604052505050565b60006124d36122ce565b90506124df8282612498565b919050565b600067ffffffffffffffff8211156124ff576124fe612469565b5b61250882612458565b9050602081019050919050565b82818337600083830152505050565b6000612537612532846124e4565b6124c9565b90508281526020810184848401111561255357612552612453565b5b61255e848285612515565b509392505050565b600082601f83011261257b5761257a61244e565b5b813561258b848260208601612524565b91505092915050565b6000806000606084860312156125ad576125ac6122d8565b5b60006125bb86828701612401565b93505060206125cc86828701612439565b925050604084013567ffffffffffffffff8111156125ed576125ec6122dd565b5b6125f986828701612566565b9150509250925092565b6000806000806080858703121561261d5761261c6122d8565b5b600085013567ffffffffffffffff81111561263b5761263a6122dd565b5b61264787828801612566565b945050602085013567ffffffffffffffff811115612668576126676122dd565b5b61267487828801612566565b935050604085013567ffffffffffffffff811115612695576126946122dd565b5b6126a187828801612566565b92505060606126b287828801612361565b91505092959194509250565b600080604083850312156126d5576126d46122d8565b5b600083013567ffffffffffffffff8111156126f3576126f26122dd565b5b6126ff85828601612566565b925050602061271085828601612361565b9150509250929050565b6000602082840312156127305761272f6122d8565b5b600061273e84828501612401565b91505092915050565b61275081612340565b82525050565b61275f81612302565b82525050565b600081519050919050565b600082825260208201905092915050565b60005b8381101561279f578082015181840152602081019050612784565b60008484015250505050565b60006127b682612765565b6127c08185612770565b93506127d0818560208601612781565b6127d981612458565b840191505092915050565b6127ed81612416565b82525050565b600060c08201905061280860008301896123c0565b6128156020830188612747565b6128226040830187612756565b818103606083015261283481866127ab565b9050818103608083015261284881856127ab565b905061285760a08301846127e4565b979650505050505050565b600081519050919050565b600082825260208201905092915050565b6000819050602082019050919050565b612897816123b6565b82525050565b6128a681612340565b82525050565b6128b581612302565b82525050565b600082825260208201905092915050565b60006128d782612765565b6128e181856128bb565b93506128f1818560208601612781565b6128fa81612458565b840191505092915050565b61290e81612416565b82525050565b60006101008301600083015161292d600086018261288e565b506020830151612940602086018261289d565b50604083015161295360408601826128ac565b506060830151848203606086015261296b82826128cc565b9150506080830151848203608086015261298582826128cc565b91505060a083015184820360a086015261299f82826128cc565b91505060c08301516129b460c0860182612905565b5060e08301516129c760e0860182612905565b508091505092915050565b60006129de8383612914565b905092915050565b6000602082019050919050565b60006129fe82612862565b612a08818561286d565b935083602082028501612a1a8561287e565b8060005b85811015612a565784840389528151612a3785826129d2565b9450612a42836129e6565b925060208a01995050600181019050612a1e565b50829750879550505050505092915050565b60006020820190508181036000830152612a8281846129f3565b905092915050565b6000602082019050612a9f6000830184612756565b92915050565b600060208284031215612abb57612aba6122d8565b5b6000612ac98482850161232b565b91505092915050565b600061010082019050612ae8600083018b6123c0565b612af5602083018a612747565b612b026040830189612756565b8181036060830152612b1481886127ab565b90508181036080830152612b2881876127ab565b905081810360a0830152612b3c81866127ab565b9050612b4b60c08301856127e4565b612b5860e08301846127e4565b9998505050505050505050565b600060208284031215612b7b57612b7a6122d8565b5b600082013567ffffffffffffffff811115612b9957612b986122dd565b5b612ba584828501612566565b91505092915050565b7f4f6e6c79207468652053757065726c6f7564206d616e6167657273206f72207460008201527f68652063757261746f72206f66207468697320736f6e672063616e20756e696e60208201527f6465782069742100000000000000000000000000000000000000000000000000604082015250565b6000612c30604783612770565b9150612c3b82612bae565b606082019050919050565b60006020820190508181036000830152612c5f81612c23565b9050919050565b7f4e487b7100000000000000000000000000000000000000000000000000000000600052601160045260246000fd5b6000612ca082612340565b9150612cab83612340565b9250828203905081811115612cc357612cc2612c66565b5b92915050565b7f4e487b7100000000000000000000000000000000000000000000000000000000600052603260045260246000fd5b7f4e487b7100000000000000000000000000000000000000000000000000000000600052603160045260246000fd5b600081905092915050565b6000612d3d82612765565b612d478185612d27565b9350612d57818560208601612781565b80840191505092915050565b6000612d6f8284612d32565b915081905092915050565b7f4e487b7100000000000000000000000000000000000000000000000000000000600052602260045260246000fd5b60006002820490506001821680612dc157607f821691505b602082108103612dd457612dd3612d7a565b5b50919050565b60008190508160005260206000209050919050565b60008154612dfc81612da9565b612e068186612d27565b94506001821660008114612e215760018114612e3657612e69565b60ff1983168652811515820286019350612e69565b612e3f85612dda565b60005b83811015612e6157815481890152600182019150602081019050612e42565b838801955050505b50505092915050565b6000612e7e8284612def565b915081905092915050565b60006020601f8301049050919050565b600082821b905092915050565b600060088302612ed67fffffffffffffffffffffffffffffffffffffffffffffffffffffffffffffffff82612e99565b612ee08683612e99565b95508019841693508086168417925050509392505050565b6000819050919050565b6000612f1d612f18612f1384612340565b612ef8565b612340565b9050919050565b6000819050919050565b612f3783612f02565b612f4b612f4382612f24565b848454612ea6565b825550505050565b600090565b612f60612f53565b612f6b818484612f2e565b505050565b5b81811015612f8f57612f84600082612f58565b600181019050612f71565b5050565b601f821115612fd457612fa581612dda565b612fae84612e89565b81016020851015612fbd578190505b612fd1612fc985612e89565b830182612f70565b50505b505050565b600082821c905092915050565b6000612ff760001984600802612fd9565b1980831691505092915050565b60006130108383612fe6565b9150826002028217905092915050565b61302982612765565b67ffffffffffffffff81111561304257613041612469565b5b61304c8254612da9565b613057828285612f93565b600060209050601f83116001811461308a5760008415613078578287015190505b6130828582613004565b8655506130ea565b601f19841661309886612dda565b60005b828110156130c05784890151825560018201915060208501945060208101905061309b565b868310156130dd57848901516130d9601f891682612fe6565b8355505b6001600288020188555050505b505050505050565b600081546130ff81612da9565b6131098186612770565b94506001821660008114613124576001811461313a5761316d565b60ff19831686528115156020028601935061316d565b61314385612dda565b60005b8381101561316557815481890152600182019150602081019050613146565b808801955050505b50505092915050565b600060608201905061318b60008301866123c0565b818103602083015261319d81856130f2565b90506131ac60408301846127e4565b949350505050565b60008160601b9050919050565b60006131cc826131b4565b9050919050565b60006131de826131c1565b9050919050565b6131f66131f182612302565b6131d3565b82525050565b6000819050919050565b61321761321282612340565b6131fc565b82525050565b600061322982896131e5565b60148201915061323982886131e5565b6014820191506132498287612d32565b91506132558286612d32565b91506132618285612d32565b915061326d8284613206565b602082019150819050979650505050505050565b7f5468697320736f6e672077617320616c7265616479206c697374656420696e2060008201527f74686520636174616c6f672e0000000000000000000000000000000000000000602082015250565b60006132dd602c83612770565b91506132e882613281565b604082019050919050565b6000602082019050818103600083015261330c816132d0565b9050919050565b600060e082019050613328600083018a6123c0565b6133356020830189612747565b6133426040830188612756565b818103606083015261335481876127ab565b9050818103608083015261336881866127ab565b905081810360a083015261337c81856127ab565b905061338b60c08301846127e4565b98975050505050505050565b7f4f6e6c79207468652053757065726c6f7564206d616e61676572732063616e2060008201527f7573652074686973206665617475726520210000000000000000000000000000602082015250565b60006133f3603283612770565b91506133fe82613397565b604082019050919050565b60006020820190508181036000830152613422816133e6565b9050919050565b600061343482612340565b91507fffffffffffffffffffffffffffffffffffffffffffffffffffffffffffffffff820361346657613465612c66565b5b60018201905091905056fea2646970667358221220b6e1ad81dcd82ec1a2fbf00f6cfb5c53b6fe460d76729a1e1d921f7824cce00b64736f6c63430008120033",
  "immutableReferences": {},
  "source": "// SPDX-License-Identifier: MIT\npragma solidity ^0.8.17;\n\n/**\n - Superloud Catalog\n - List songs (by karaoke version id, by original version id, by curator...)\n - Index/unindex songs\n*/\ncontract SuperloudCatalog {\n  address private _owner;\n\n  struct KaraokeVersion {\n    bytes32 id_karaoke_version;\n    uint256 created_at;\n    address curator;\n    string id_original_version;\n    string uri_original_version_metadata;\n    string uri_karaoke_version_metadata;\n    bool is_indexed;\n    bool exists;\n  }\n\n  // For a given karaoke version id, returns a song\n  mapping(bytes32 => KaraokeVersion) public id_karaoke_version_to_listed_song;\n\n  // For a given original version id, returns songs\n  mapping(string => bytes32[]) public id_original_version_to_karaoke_versions;\n\n  // For a given curator Ethereum address, return this curator's listed songs\n  mapping(address => bytes32[]) public curator_address_to_songs;\n\n  event ListNewKaraokeVersion(\n    bytes32 id_karaoke_version,\n    uint256 created_at,\n    address curator_address,\n    string id_original_version,\n    string uri_original_version_metadata,\n    string uri_karaoke_version_metadata,\n    bool is_indexed\n  );\n\n  event UpdateListedKaraokeVersion(bytes32 id_karaoke_version, string uri_karaoke_version_metadata, bool is_indexed);\n\n  // Array of all listed songs ids\n  bytes32[] private _listed_karaoke_versions_ids;\n\n  // Array of all indexed/public listed songs ids\n  bytes32[] private _indexed_listed_karaoke_versions_ids;\n\n  constructor() {\n    _owner = msg.sender;\n  }\n\n  /**\n   * Returns the address of the contract owner\n   */\n  function owner() public view returns (address) {\n    return _owner;\n  }\n\n  modifier onlyOwner() {\n    require(owner() == msg.sender, 'Only the Superloud managers can use this feature !');\n    _;\n  }\n\n  /**\n   * Return indexed karaoke version id\n   */\n  function _getIndexedKaraokeVersionId(bytes32 id_karaoke_version, bytes32[] storage list)\n    private\n    view\n    returns (uint256 index)\n  {\n    for (uint256 i = 0; i < list.length; i++) {\n      if (list[i] == id_karaoke_version) {\n        return i;\n      }\n    }\n  }\n\n  /*\n    List & index a new song in the Superloud karaoke catalog\n  */\n  function listNewKaraokeVersion(\n    string memory id_original_version,\n    string memory uri_original_version_metadata,\n    string memory uri_karaoke_version_metadata,\n    uint256 created_at\n  ) external {\n    // Create a unique identifier for the song\n    bytes32 id_karaoke_version = keccak256(\n      abi.encodePacked(\n        msg.sender,\n        address(this),\n        id_original_version,\n        uri_original_version_metadata,\n        uri_karaoke_version_metadata,\n        created_at\n      )\n    );\n\n    // Check is the karaoke version was already listed in the catalog\n    require(\n      id_karaoke_version_to_listed_song[id_karaoke_version].exists == false,\n      'This song was already listed in the catalog.'\n    );\n\n    // Index the created karaoke version to the curator_address<>songs mapping\n    curator_address_to_songs[msg.sender].push(id_karaoke_version);\n\n    // Index the original version (if it wasn't listed)\n    id_original_version_to_karaoke_versions[id_original_version].push(id_karaoke_version);\n\n    // Index the created karaoke version id to the song_id<>song mapping\n    _listed_karaoke_versions_ids.push(id_karaoke_version);\n    _indexed_listed_karaoke_versions_ids.push(id_karaoke_version);\n    // Add our karaoke version on chain !\n    id_karaoke_version_to_listed_song[id_karaoke_version] = KaraokeVersion(\n      // Id of our newly created karaoke version\n      id_karaoke_version,\n      // timestamp (epoch time) of when the karaoke version was listed\n      created_at,\n      // Curator address\n      msg.sender,\n      // Id of the original version (from Spinamp API)\n      id_original_version,\n      // URI of the original song (eg: ipfs://<cid> ; ar://<arweave-tx-id> ; https://<some-website> etc. etc.)\n      uri_original_version_metadata,\n      // URI of the metadata of our karaoke version (eg: ipfs://<cid> ; ar://<arweave-tx-id> ; https://<some-website> etc. etc.)\n      // Note: this will be used by The Graph\n      // So it's better to host the metadata on IPFS with Infura\n      uri_karaoke_version_metadata,\n      // If the song is indexed or not\n      // (indexed song = visible on the front-end ; unindexed songs are not visible on the front-end)\n      true,\n      // If our song exists or not\n      true\n    );\n\n    emit ListNewKaraokeVersion(\n      id_karaoke_version,\n      created_at,\n      msg.sender,\n      id_original_version,\n      uri_original_version_metadata,\n      uri_karaoke_version_metadata,\n      true\n    );\n  }\n\n  /*\n    Unindex a song from the Superloud karaoke catalog\n    Only the curator and the contract owner can do that\n    KaraokeVersions can't be permanently deleted, as some users might buy access to it\n  */\n  function updateKaraokeVersion(\n    bytes32 id_karaoke_version,\n    bool is_indexed,\n    string memory uri_karaoke_version_metadata_updated\n  ) external {\n    require(\n      msg.sender == owner() || msg.sender == id_karaoke_version_to_listed_song[id_karaoke_version].curator,\n      'Only the Superloud managers or the curator of this song can unindex it!'\n    );\n    KaraokeVersion storage song_to_update = id_karaoke_version_to_listed_song[id_karaoke_version];\n\n    // If the visibility value of the song was updated\n    if (song_to_update.is_indexed != is_indexed) {\n      id_karaoke_version_to_listed_song[id_karaoke_version].is_indexed = is_indexed;\n      // Update our managed visibility indexer\n      if (is_indexed == true) {\n        _indexed_listed_karaoke_versions_ids.push(id_karaoke_version);\n      } else {\n        _indexed_listed_karaoke_versions_ids[\n          _getIndexedKaraokeVersionId(id_karaoke_version, _indexed_listed_karaoke_versions_ids)\n        ] = _indexed_listed_karaoke_versions_ids[_indexed_listed_karaoke_versions_ids.length - 1];\n        _indexed_listed_karaoke_versions_ids.pop();\n      }\n    }\n\n    // If metadata uri of the karaoke version\n    if (\n      keccak256(abi.encodePacked(song_to_update.uri_karaoke_version_metadata)) !=\n      keccak256(abi.encodePacked(uri_karaoke_version_metadata_updated))\n    ) {\n      id_karaoke_version_to_listed_song[id_karaoke_version]\n        .uri_karaoke_version_metadata = uri_karaoke_version_metadata_updated;\n    }\n    KaraokeVersion storage updated_song = id_karaoke_version_to_listed_song[id_karaoke_version];\n    emit UpdateListedKaraokeVersion(\n      id_karaoke_version,\n      updated_song.uri_karaoke_version_metadata,\n      updated_song.is_indexed\n    );\n  }\n\n  /*\n    Get all karaoke versions from the Superloud karaoke catalog\n  */\n  function getAllKaraokeVersions() public view onlyOwner returns (KaraokeVersion[] memory) {\n    KaraokeVersion[] memory all_listed_songs = new KaraokeVersion[](_listed_karaoke_versions_ids.length);\n    for (uint256 i; _listed_karaoke_versions_ids.length > i; i++) {\n      all_listed_songs[i] = id_karaoke_version_to_listed_song[_listed_karaoke_versions_ids[i]];\n    }\n    return all_listed_songs;\n  }\n\n  /*\n    Get all indexed (visible on the front-end) karaoke versions from the Superloud karaoke catalog\n  */\n  function getIndexedKaraokeVersions() public view returns (KaraokeVersion[] memory) {\n    KaraokeVersion[] memory indexed_songs = new KaraokeVersion[](_indexed_listed_karaoke_versions_ids.length);\n    for (uint256 i; _indexed_listed_karaoke_versions_ids.length > i; i++) {\n      indexed_songs[i] = id_karaoke_version_to_listed_song[_indexed_listed_karaoke_versions_ids[i]];\n    }\n    return indexed_songs;\n  }\n\n  /*\n    Get a curator's listed karaoke versions (curator & contract owner only)\n  */\n  function getKaraokeVersionsByCurator(address curator) public view returns (KaraokeVersion[] memory songs) {\n    uint256 total_amount_songs_listed_by_curator = curator_address_to_songs[curator].length;\n\n    // If the wallet address calling this function is the curator or the contract owner\n    if (msg.sender == curator || msg.sender == owner()) {\n      // Return all songs listed by this curator\n      KaraokeVersion[] memory all_songs_listed_by_curator = new KaraokeVersion[](total_amount_songs_listed_by_curator);\n      for (uint256 index; total_amount_songs_listed_by_curator > index; index++) {\n        all_songs_listed_by_curator[index] = id_karaoke_version_to_listed_song[\n          curator_address_to_songs[curator][index]\n        ];\n      }\n      return all_songs_listed_by_curator;\n    } else {\n      // Otherwise, only return public (is_indexed = true) karaoke versions\n      uint256 public_amount_songs_listed_by_curator;\n      for (uint256 i; public_amount_songs_listed_by_curator > i; i++) {\n        if (id_karaoke_version_to_listed_song[curator_address_to_songs[curator][i]].is_indexed == true) {\n          public_amount_songs_listed_by_curator++;\n        }\n      }\n      KaraokeVersion[] memory indexed_songs_listed_by_curator = new KaraokeVersion[](\n        public_amount_songs_listed_by_curator\n      );\n      for (uint256 i; public_amount_songs_listed_by_curator > i; i++) {\n        if (id_karaoke_version_to_listed_song[curator_address_to_songs[curator][i]].is_indexed == true) {\n          indexed_songs_listed_by_curator[i] = id_karaoke_version_to_listed_song[curator_address_to_songs[curator][i]];\n        }\n      }\n      return indexed_songs_listed_by_curator;\n    }\n  }\n\n  /**\n  Get a list of all karaoke versions for a given original version id\n */\n  function getKaraokeVersionsForOriginalVersion(string memory id_original_version)\n    public\n    view\n    returns (KaraokeVersion[] memory indexed_karaoke_versions)\n  {\n    bytes32[] memory karaoke_versions = id_original_version_to_karaoke_versions[id_original_version];\n    uint256[] memory indexed_karaoke_version_indexes;\n\n    uint256 counter = 0;\n    for (uint256 i; karaoke_versions.length > i; i++) {\n      if (id_karaoke_version_to_listed_song[karaoke_versions[i]].is_indexed == true) {\n        indexed_karaoke_version_indexes[counter] = i;\n        counter++;\n      }\n    }\n    indexed_karaoke_versions = new KaraokeVersion[](indexed_karaoke_version_indexes.length);\n    for (uint256 i; indexed_karaoke_version_indexes.length > i; i++) {\n      indexed_karaoke_versions[i] = id_karaoke_version_to_listed_song[\n        karaoke_versions[indexed_karaoke_version_indexes[i]]\n      ];\n    }\n    return indexed_karaoke_versions;\n  }\n\n  /*\n    Get a listed karaoke version by its id\n  */\n  function getKaraokeVersionById(bytes32 id)\n    public\n    view\n    returns (\n      bytes32 id_karaoke_version,\n      uint256 created_at,\n      address curator,\n      string memory uri_original_version_metadata,\n      string memory uri_karaoke_version_metadata,\n      bool is_indexed\n    )\n  {\n    KaraokeVersion memory _song = id_karaoke_version_to_listed_song[id];\n    return (\n      id,\n      _song.created_at,\n      _song.curator,\n      _song.uri_original_version_metadata,\n      _song.uri_karaoke_version_metadata,\n      _song.is_indexed\n    );\n  }\n}\n",
  "sourcePath": "/home/naomi/dev/perso/superloud/apps/smartcontracts-solidity/contracts/SuperloudCatalog.sol",
  "compiler": {
    "name": "solc",
    "version": "0.8.18+commit.87f61d96.Emscripten.clang"
  },
  "schemaVersion": "3.4.11",
  "updatedAt": "2023-02-09T17:09:05.026Z",
  "networkType": "ethereum",
  "devdoc": {
    "kind": "dev",
    "methods": {},
    "version": 1
  },
  "userdoc": {
    "kind": "user",
    "methods": {
      "getKaraokeVersionsForOriginalVersion(string)": {
        "notice": "Get a list of all karaoke versions for a given original version id"
      },
      "owner()": {
        "notice": "Returns the address of the contract owner"
      }
    },
    "notice": "- Superloud Catalog - List songs (by karaoke version id, by original version id, by curator...) - Index/unindex songs",
    "version": 1
  }
}